:1000000000800020BD010000DD3A0000A93A000098
:10001000A93A0000A93A0000A93A0000A93A000054
:10002000A93A0000A93A0000A93A0000DD3A000010
:10003000DD3A0000A93A0000BD50000081510000E7
:10004000DD3A0000DD3A0000DD3A0000DD3A000054
:10005000DD3A0000DD3A0000DD3A0000DD3A000044
:10006000DD3A0000DD3A0000DD3A0000DD3A000034
:10007000DD3A0000DD3A0000DD3A0000DD3A000024
:10008000DD3A0000DD3A0000DD3A0000DD3A000014
:10009000DD3A0000DD3A0000DD3A0000DD3A000004
:1000A000DD3A0000DD3A0000DD3A0000DD3A0000F4
:1000B000DD3A0000DD3A0000DD3A0000DD3A0000E4
:1000C000DD3A0000DD3A0000DD3A0000DD3A0000D4
:1000D000DD3A0000DD3A0000DD3A0000DD3A0000C4
:1000E000DD3A0000DD3A0000DD3A0000DD3A0000B4
:1000F000DD3A000059430000DD3A00006D52000077
:10010000DD3A000089530000DD3A0000DD3A0000CE
:10011000DD3A0000DD3A0000DD3A0000DD3A000083
:10012000DD3A0000DD3A0000DD3A0000DD3A000073
:10013000DD3A0000DD3A0000DD3A0000DD3A000063
:10014000DD3A0000DD3A0000DD3A0000DD3A000053
:10015000DD3A0000DD3A0000DD3A0000DD3A000043
:10016000DD3A0000E9450000DD3A0000DD3A00001C
:10017000DD3A0000DD3A0000DD3A0000DD3A000023
:10018000DD3A0000DD3A0000DD3A0000DD3A000013
:10019000DD3A0000DD3A0000DD3A0000DD3A000003
:1001A000DD3A0000DD3A0000DD3A0000DD3A0000F3
:1001B000DD3A0000DD3A0000DD3A0000564B4CF21B
:1001C000205210B51A804DF628121A8000BF00BFC9
:1001D00003F088FC514B4FF010621A60504A9A604D
:1001E000504ADA60504A136813F4807301BF4F49D4
:1001F0000B604FF4A85313604D4B4E491A7810070B
:1002000042BF1A7842F008021A704B4B2A221A7029
:100210004A4A4B4B8B4204D252F8040F43F8040B6A
:10022000F8E7484B484A0021934202D243F8041BA6
:10023000FAE7464A4648002350F8231042F82310B4
:1002400001336F2BF8D1434B434A802103F8011B44
:100250009342FBD1414B3D4A1A60414B8A221A70AE
:10026000A3F5805324225A70A0221A709A7991071C
:10027000FCD59A79D206FCD43A4A937903F00C0360
:10028000082B384BF9D105221A7143225A719A79F9
:100290009406FCD533498A79324B5006FBD5324A55
:1002A0004FF0817111600521516020221A709A79F6
:1002B00002F00C020C2AFAD12C4B2D4A1A602D4B5D
:1002C0002D4A1A6000225A60072243F8042C2B4A58
:1002D000C3F80C2D62B603F005FD144B1B68DA075A
:1002E00005D5274803F066FC264B274A1A60274BA2
:1002F0001B785B0609D5234C234B22689A4204D114
:100300001F4803F057FC0023236005F0CBFE03F0E9
:10031000EFFB03F005FBFEE70E20054030800440B4
:10032000823F04000100002B10D0034014D0034092
:1003300002D00740D092FF1F00E0074080B10000CC
:100340002087FF1FD092FF1FBCCFFF1F0082FF1F1F
:100350000000000000E400E05FE400E008ED00E0E1
:1003600000500640004006404480044004800440A1
:10037000C010050014E000E03F190100000020203B
:1003800065FEFF5C1CE00340A5C3945A00F00740E3
:10039000FFFFFFFFFFFFFFFFFFFFFFFFFFFFFFFF6D
:1003A000FFFFFFFFFFFFFFFFFFFFFFFFFFFFFFFF5D
:1003B000FFFFFFFFFFFFFFFFFFFFFFFFFFFFFFFF4D
:1003C000FFFFFFFFFFFFFFFFFFFFFFFFFFFFFFFF3D
:1003D000FFFFFFFFFFFFFFFFFFFFFFFFFFFFFFFF2D
:1003E000FFFFFFFFFFFFFFFFFFFFFFFFFFFFFFFF1D
:1003F000FFFFFFFFFFFFFFFFFFFFFFFFFFFFFFFF0D
:10040000FFFFFFFFFFFFFFFFFFFFFFFFDEF9FFFF23
:1004100010B5054C237833B9044B13B10448AFF33E
:1004200000800123237010BDD092FF1F0000000048
:100430007CB10000084B10B51BB108490848AFF368
:1004400000800848036803B910BD074B002BFBD0A0
:10045000BDE81040184700BF00000000D492FF1F05
:100460007CB10000D092FF1F00000000406970477F
:1004700013B5002302688DF800308DF801308DF837
:10048000023014688DF804308DF805308DF8063090
:100490000A4601AB6946A04702B010BD0020704774
:1004A00070472DE9FF41D0F8188005460C46B8F199
:1004B000000F19D14F6818267E43304605F034FEF0
:1004C000E861304605F030FE2862012003F04EFB63
:1004D000CDF800800646EB692A6A394602F0D4FD61
:1004E000AE61304602F0E4FDEB6902AE1833A2685B
:1004F000002A40F32581E07CD4F800C004F1140701
:100500000130BE4600215EF8042F6244527822B1C9
:1005100094F80D8082FA58F2D2B2424312128A55F0
:1005200001310829EFD1039A029882EAD21101F031
:10053000AA114A4082EAC11181EA91324CF6CC4EAE
:1005400002EA0E0E81EA0E0181EA8E3E80EAD011A7
:1005500001F0AA11484080EAC11181EA91304CF6BD
:10056000CC420240514081EA82310A090EF0F0305B
:1005700002F00F3210434FEA0E1201F00F3102F079
:10058000F0320A43110A03F8112C03F8121C110C63
:10059000120E03F8142C020A03F8150C03F8162C9B
:1005A000020C000E03F8131C03F8172C03F8180CA8
:1005B000A07CD4F800C00130BE4600215EF8042FB4
:1005C0001CF8022022B194F80C8082FA58F2D2B2C0
:1005D00042431212725401310829EFD1039A029852
:1005E00082EAD21101F0AA114A4082EAC11181EADD
:1005F00091324CF6CC4E02EA0E0E81EA0E0181EAEF
:100600008E3E80EAD01101F0AA11484080EAC11163
:1006100081EA91304CF6CC420240514081EA82316D
:100620000A090EF0F03002F00F3210434FEA0E12BA
:1006300001F00F3102F0F0320A43110A03F8092CDD
:1006400003F80A1C110C120E03F80C2C020A03F812
:100650000D0C03F80E2C020C000E03F80B1C03F813
:100660000F2C03F8100C207DD4F800E0013000219D
:1006700057F8042F7244927822B194F80EC082FA8F
:100680005CF2D2B242431212725401310829EFD106
:10069000039A029882EAD21101F0AA114A4082EA32
:1006A000C11181EA91324CF6CC471740794081EA7A
:1006B000873780EAD01101F0AA11484080EAC111C1
:1006C00081EA91304CF6CC420240514081EA8231BD
:1006D0000A0902F00F3207F0F03010433A0101F03E
:1006E0000F3102F0F0320A43110A03F8012C03F82B
:1006F000021C110C120E03F8042C020A03F8050C5C
:1007000003F8062C020C000E03F8031C03F8072C58
:1007100003F8080C217BE27B521A2273617B227C56
:10072000521A6273A17B627C521AA273216894F9F7
:1007300015200A442260A268013AA2601833D6E666
:10074000A86904B0BDE8F04102F008BE2DE9F04F01
:10075000074689B0002451F82420D2B20134FF2A80
:10076000A4B2F8D10A680D46C2F3072EC2F3074CB3
:100770004FEA126900204FF0FF3655F8042FC2F3FC
:10078000072B5FFA8BF3C2F3074A5FFA82F80393F1
:10079000C2F307625FFA8AF304930011D3B20F2CFD
:1007A0000593C1B24FEA181309D8B04206DC0F2EE8
:1007B00004D0711CC9B28B4238BF0B465EB28DF8B3
:1007C0001E2007AA0092384606AA8DF818E08DF878
:1007D00019C08DF81A908DF81CB08DF81DA001F08D
:1007E00033FB4046FF28DDF81490DDF810C0DDF83B
:1007F0000CE0C2D1384609B0BDE8F08F30B50948E9
:100800000023C3F58361002202319C188D18013248
:10081000962A40F82450F8D19633B3F5966FF0D16C
:1008200030BD00BF84A1FF1F37B54FF4E13125482B
:1008300002F033FA0721244804F0E0FA234802F0DA
:100840004FFF2348046814F001041FD103F068F936
:10085000E0B1204BFF221A735A739A73DA731A7439
:100860005A7401229A741C4A5C6011685C619C6035
:1008700001B91360194A116801B18B601360184AFD
:100880001A60134800229A6103F04FF99622154C22
:1008900015491048002301F013FAB02301A920469E
:1008A000FF258DF80530F0238DF806308DF80450C3
:1008B00001F02CFA2570FFF7A1FF00F0C9F903B091
:1008C00030BD00BFE8B4FF1F28A800007488FF1FD8
:1008D000F092FF1FF492FF1F8CCCFF1F9CCCFF1FD8
:1008E000F0A700007CCCFF1F1893FF1F08B500F095
:1008F00045F9BDE8084000F03DBE002330B51A467A
:1009000000F1140444F8042F013390F91550082B1A
:1009100001FB0522F6D130BD70B5184B1A780132B3
:1009200002F0070212F0010F1A700CBF002380239F
:10093000910744BF43F04003DBB2520748BF43F086
:100940002003103300F10E01DAB211304FF480763B
:100950000B791BB196FBF3F30133DBB203FB0225EA
:100960002D1201F8013FECB205B1013C01F8034C36
:100970000BB1013B0B708842EAD170BDEC92FF1FB6
:1009800030B515468FB0827C02958DE8220019782B
:100990008DF81210012A59789B788DF813100446AF
:1009A0008DF8143003D16846FFF7B6FF0CE0002342
:1009B0008DF811308DF810308DF80F308DF80E3025
:1009C0008DF80D308DF80C300023294668468DF8DF
:1009D0001530FFF792FF236869469B6920469847C8
:1009E0000FB030BD30B515468FB0827C02958DE8D2
:1009F000220019788DF81210012A59789B788DF809
:100A0000131004468DF8143003D16846FFF784FFB5
:100A10000CE000238DF811308DF810308DF80F3078
:100A20008DF80E308DF80D308DF80C3003232946EB
:100A300068468DF81530FFF760FF236869469B69AB
:100A4000204698470FB030BD08B508490848FFF761
:100A50007DFE08490848FFF779FE08490848FFF776
:100A600075FE08490848FFF771FE08BD0CA8000094
:100A7000B5B4FF1F30A800007CB4FF1F3CA80000E5
:100A80004CB4FF1F18A8000051A1FF1F38B5044641
:100A900008460D4606F094FA2368024629465B682C
:100AA000204698470546204602F01AFE284438BDE5
:100AB00070B5044618200E4603F058F80546314636
:100AC00001F035FB2B78032B02D1032323730DE0B8
:100AD000A16860680131890005F06CFE0028F4D03F
:100AE000A368606040F823500133A360204670BDC6
:100AF00010B5184988B004461748FFF7C7FF1549D5
:100B000001A801F04BFD214601A8FFF7D1FF01A884
:100B100001F02AFC114C78B9114802F0C7F81049CD
:100B200001A801F055FC0E4802F0BBF823784BB148
:100B30000C490948FFF7AAFF23781BB10A49064868
:100B4000FFF7A4FF01A801F03CFD01A801F05AFD48
:100B500008B010BD32A1FF1F7488FF1F44A1FF1F02
:100B6000E8B4FF1F50A8000065A800000149024832
:100B700002F066B85C88FF1FE8B4FF1F70B588B04C
:100B800001A801F016FD254D42F21076244802F02E
:100B900065F820B101A801F0E7FBD0B138E02048AA
:100BA00001F0B8FF041E0DDD03F066F8286014F1B3
:100BB000FF3407D31A4801F0E3FFC1B201A801F0E6
:100BC000A1FFF4E703F058F82B68C01AB042DDD952
:100BD000E0E7144B1B781BB113491448FFF756FF8D
:100BE0000023134A134901A801F097FB0023124A7E
:100BF000124901A801F091FB0023114A114901A8F3
:100C000001F08BFB0023104A104901A801F085FB7D
:100C100001A801F0F7FC08B070BD00BFFCB4FF1FD5
:100C2000E8B4FF1F44A1FF1F7BA800007488FF1FCA
:100C3000A51600008FA800005517000098A8000016
:100C400035160000A2A80000351C0000AAA800006C
:100C5000234BDFF8B4C002222DE9F3411A70214D75
:100C6000214B2248DFF8A480DFF8A4E042F21074A0
:100C70001C6000212B880E46DCF80020019203EB5B
:100C8000432203EB820303F5585319339BB2019FB0
:100C9000B3FBF4F204FB12323A4401F808604EF858
:100CA00021200131B1F5966F00F8016C0670467095
:100CB00000F10300E0D10E482B80017801F058F8D4
:100CC0000C4BFF221A800C4B0A221A600B4B0C4A69
:100CD0001A600C4B01221A7002B0BDE8F08100BF0F
:100CE000E5B4FF1F5688FF1FB0B9FF1F1993FF1F00
:100CF0007CCCFF1F30A1FF1F2CA1FF1F74CCFF1F56
:100D00004CB4FF1F50A1FF1FD4CCFF1F00B5FF1F25
:100D1000B4B9FF1F2DE9F0472A4C2B4E2B4FDFF8BB
:100D2000C080DFF8C09086B000253B680493049B28
:100D300058F825209A424FEA850A33D801232278B1
:100D40000093D9F80010FF2303A801F0E0F89DF804
:100D50000C3006F8013C9DF80D3033709DF80E30D4
:100D600073701B4A237812880133DBB29A422370D6
:100D700018D818480023028823703B68059302EBBB
:100D8000422302EB830303F55853134A05991933A1
:100D90009BB203801068B3FBF0F200FB12330B44EC
:100DA0004AF808300135B5F5966F04F1010406F1F3
:100DB0000306BAD10948017800F0DAFF06B0BDE8B1
:100DC000F08700BF00B5FF1F1993FF1FD4CCFF1F92
:100DD00030A1FF1F5688FF1FB0B9FF1F7CCCFF1F3B
:100DE000B4B9FF1F74CCFF1F2DE9F7431E4D1F4FF1
:100DF0001F4E05F593782B886C88D3B1DFF884906B
:100E0000AB889C4222DC57F824101A481A4B007811
:100E100099F800201B788DF8040001EB4101314462
:100E200001A88DF805208DF80630013401F0C4F8D2
:100E3000E6E7A888844209DC57F8242002EB420246
:100E4000B118B35401344B708B70F3E70635454548
:100E5000D1D10A480A4B017800221A7000F088FFAD
:100E600003B0BDE8F08300BF3087FF1F84A1FF1FE0
:100E70001893FF1F4CA1FF1F28A1FF1F7CCCFF1F51
:100E800050A1FF1FE6B4FF1FF0B5114B87B001AAB8
:100E9000054603F11007164618685968144603C43E
:100EA0000833BB422246F7D100230A4AADF814307A
:100EB000F15C99540133122BFAD10A226946284673
:100EC00005F030F96946034805F07EFE07B0F0BD35
:100ED000B7A8000032A1FF1F70B50B4E00240623F7
:100EE000634301349B5B012B0CBF084D002520465A
:100EF000FFF7CAFF2846FFF7FBFD0121044800F079
:100F00007DFF312CEBD170BD3087FF1F00004842C0
:100F10007CCCFF1F70B500F021FE00231249052490
:100F2000062001251E4693FBF4F202EB82029A1A78
:100F3000013A012A00FB03F203F101038CBF8E5238
:100F40008D52312BEFD1FFF7C7FF084B19221A70D2
:100F5000074AFF231370074A1370074A01231370CF
:100F6000064A137070BD00BF3087FF1F4CA1FF1FE2
:100F7000E6B4FF1F28A1FF1FE5B4FF1F50A1FF1F0C
:100F800070B5421E062454430D4D0E492B5BC3F130
:100F900001039BB206460C482B5302F0B8FB0B4BE7
:100FA00001221A702B5B0BB1094C00E00024304683
:100FB000FFF76AFF2046BDE87040FFF799BD00BF0C
:100FC0003087FF1FC9A800007488FF1F50A1FF1FB2
:100FD00000004842002801DDFFF7D2BF7047FFFF45
:100FE000054A0023012199520633B3F5937FFAD1C4
:100FF000FF2000F013BB00BF3087FF1F0023044A0F
:10100000194699520633B3F5937FFAD1704700BF62
:101010003087FF1F012810B5044619D143494448C1
:10102000FFF734FDFFF7EAFF1520FFF7A9FF1620B1
:10103000FFF7A6FF1720FFF7A3FF1820FFF7A0FF79
:10104000642000F0EBFA1E2000F0E2FAC82029E04C
:10105000022818D137493648FFF718FDFFF7CEFFB1
:101060002046FFF78DFF0320FFF78AFF0420FFF7DC
:1010700087FF0520FFF784FF0620FFF781FFFFF7BA
:101080002BFF20464CE0032812D12B492848FFF7BC
:10109000FDFCFFF7A5FFFF2000F0C0FAFF2000F0E5
:1010A000B7FA002000F0C0FABDE81040FFF714BF07
:1010B000042839D121491E48FFF7E8FCFFF79EFFBD
:1010C0000220FFF75DFF0320FFF75AFF2046FFF7DE
:1010D00057FF0C20FFF754FF0B20FFF751FF15209F
:1010E000FFF74EFF1620FFF74BFF1720FFF748FFD3
:1010F0001820FFF745FF1E20FFF742FF2820FFF7CB
:101100003FFF2120FFF73CFF2020FFF739FF1B2086
:10111000FFF736FF1C20FFF733FFFFF7DDFE01204E
:10112000BDE8104000F030BD10BD00BFE7A80000D2
:101130007488FF1FFAA800000DA9000020A9000074
:10114000104A1149012310B5137000220A700F498B
:101150000F4C042008700F49142008600E480A2123
:101160000170FF2020700D4C20700D4801700D495A
:101170004FF4957008800C490A600C4A13600C4AC1
:10118000137010BD4FA1FF1FB4B4FF1FE5B4FF1FC4
:1011900028A1FF1F2CA1FF1F4CA1FF1FE6B4FF1FBA
:1011A00078CCFF1F30A1FF1F48B4FF1F48A1FF1FCD
:1011B00050A1FF1F2DE9F3414A4D2C781CB12B782B
:1011C000012B67D140E0484EDFF84081474F31683E
:1011D000A1424FEA840202D158F8241006E0444BA1
:1011E0001B885B1AA34214D158F80210414B4248A5
:1011F0001A78424B00781B788DF8040001EB41010E
:10120000394401A88DF805208DF8063000F0D4FE91
:1012100015E03B4B58F802201B7802EB4202DB43FF
:10122000B95CDBB2013359430912B818B95442789A
:101230005A4312124270827853431B128370013456
:10124000B4F5966FC3D1BAE7274EDFF8C080002708
:10125000264D00243168A14204EB070326D158F83B
:101260002310244B24481A78244B00781B788DF8DF
:10127000040001EB4101294401A88DF805208DF8F7
:10128000063000F099FE0134962CE3D19637B7F57D
:10129000966FDDD11B48017800F06AFD1A4A1449A7
:1012A000114800F09BF902B0BDE8F081104A1288A5
:1012B000521AA242D3D058F82320114B1B7802EBCC
:1012C0004202DB43A95CDBB2013359430912A8187F
:1012D000A95442785A4312124270827853431B1227
:1012E0008370D0E74FA1FF1F48B4FF1F1893FF1F63
:1012F00030A1FF1FE6B4FF1F4CA1FF1F28A1FF1F55
:1013000078CCFF1F7CCCFF1F48A1FF1F84A1FF1FCB
:10131000144A00231370144A03211170134A4FF426
:1013200096611180124A64211160124A0F211170D6
:10133000114AA02010701148FF220270104802705C
:1013400010480270104A1370104A1360104A13704C
:10135000104B114A197001231370104A1370104A70
:101360001360704779CCFF1FE5B4FF1F30A1FF1F4A
:101370002CA1FF1F4CA1FF1F4DA1FF1FE6B4FF1FB3
:101380004EA1FF1F28A1FF1F29A1FF1F48B4FF1F67
:10139000B4B4FF1F7ACCFF1F7BCCFF1F50A1FF1FEF
:1013A00048A1FF1F2DE9F7435C4E3378012B03D092
:1013B0003478002C6FD09AE00024DFF88081DFF8C9
:1013C0008091574F2546D8F8003099F800105548BD
:1013D000234493FBF1F201FB1233A200E3B9524B19
:1013E00057F8241093F800E0504B8DF805E01D7875
:1013F0008DF806500A2303FB04F201EB410101447E
:10140000FF2301A892FBF3F313448DF8043000F09E
:10141000D3FD474B1D7839E01DB3434BBA5893F8C1
:1014200000E0424B8DF805E01978414B8DF806102D
:1014300093F800C0A5EB85036344DB434FF00A0C2F
:101440000CFB043C02EB42028118FF2301A89CFB29
:10145000F3F3013D63448DF80430EDB200F0ACFDD0
:1014600014E0344BB958DFF8E8E01A78324B9EF8B4
:1014700000E01B788DF804E001EB4101014401A874
:101480008DF805208DF8063000F096FD0134B4F596
:10149000966F98D18CE7294E294F214D33683978C2
:1014A000234493FBF1F201FB1233002B1D494FEA59
:1014B000840228DB1E480078834224DAAB581A4A9B
:1014C000DFF890E01078194A127803EB43039EF896
:1014D00000E08DF80500194401A801348DF804E0FE
:1014E0008DF8062000F068FDB4F5966FD6D115484A
:1014F000017800F03DFC144A1449104800F06EF8E1
:1015000003B0BDE8F083AB580A4ADFF844E0107836
:10151000094A03EB43031278D9E700BF79CCFF1FD8
:1015200084A1FF1F1893FF1FE6B4FF1F28A1FF1F10
:101530007BCCFF1F4EA1FF1F29A1FF1F48B4FF1F37
:101540007ACCFF1F7CCCFF1F48A1FF1F30A1FF1FDB
:101550004DA1FF1F4CA1FF1F70B5044608460D4664
:1015600005F02EFD23680246294620465B68BDE84B
:1015700070401847144B1B7807B513B31349144A2E
:101580000B6800931068009B1B1A12480068834286
:1015900017D90B680193019B13600F4B1B78013B1C
:1015A000032B0ED8DFE803F00205080BFFF71CFC45
:1015B00007E0FFF7AFFB04E0FFF7F4FE01E0FFF701
:1015C000F9FD03B05DF804FB50A1FF1FD4CCFF1F51
:1015D00044B4FF1F2CA1FF1FE5B4FF1F0B4B1B786A
:1015E00010B53BB9136804680A8823449342A8BF26
:1015F000002308E0012B07D1036812689B1A002B17
:10160000036001DC0B88036010BD00BFB4B4FF1F92
:10161000014B1870704700BF4CA1FF1F014B1870A1
:10162000704700BF28A1FF1F014B1870704700BF13
:10163000E6B4FF1F38B5144B1A7805461C461AB19C
:1016400012491348FFF722FA124B134901221A706C
:101650002846002200F054FEA0B1104B1B78012B4D
:1016600010D123781BB10E490948FFF70FFA00216A
:10167000284600F090FE04F0E9FCBDE83840C0B216
:10168000FFF7C8BC38BD00BF44A1FF1F33A900004D
:101690007488FF1F50A1FF1F43A90000E5B4FF1F7E
:1016A00057A90000204B2149012210B51A700022D1
:1016B000044600F025FE40B1FFF72CFC1C4B1B78C4
:1016C0001BB11C491C48FFF7E1F900221B492046C9
:1016D00000F016FE40B1FFF7BBFA154B1B781BB1AB
:1016E00017491548FFF7D2F900221649204600F0A5
:1016F00007FE40B1FFF70CFE0D4B1B781BB11249E2
:101700000D48FFF7C3F900221049204600F0F8FD0C
:1017100040B1FFF715FD064B1B781BB10C4906487D
:10172000FFF7B4F910BD00BF50A1FF1F68A900006A
:1017300044A1FF1F7DA900007488FF1F9FA900001E
:10174000AEA90000CAA90000E0A9000004AA000098
:1017500015AA000073B500229549044600F0D0FD9B
:1017600060B10021204600F016FE04F049FC04F0B0
:10177000F3FB904B1860904B01221A7000228F49A6
:10178000204600F0BDFDA8B10021204600F003FE78
:10179000054604F003F802230246009388480B46EE
:1017A00002F006F8864801F09BFF864B1D60824BD5
:1017B00001221A7000228449204600F0A1FD58B190
:1017C0000021204600F0E7FD04F01AFC7F4BC0B278
:1017D0001860794B01221A7000227D49204600F0E2
:1017E0008FFD50B10021204600F0D5FD04F02EFC05
:1017F000784B1870704B01221A70002276492046EF
:1018000000F07EFD50B10021204600F0C4FD04F040
:101810001DFC724B1870684B01221A70002270492F
:10182000204600F06DFD50B10021204600F0B3FDD0
:1018300004F00CFC6B4B18705F4B01221A700022F5
:101840006949204600F05CFD50B10021204600F0BF
:10185000A2FD04F0FBFB654B1870574B01221A7078
:1018600000226349204600F04BFD50B10021204684
:1018700000F091FD04F0EAFB5E4B18704E4B012224
:101880001A7000225C49204600F03AFD50B1002158
:10189000204600F080FD04F0D9FB584B1870464BF1
:1018A00001221A7000225649204600F010FD58B15E
:1018B0000021204600F06FFD04F0C8FBC0B2FFF726
:1018C00089FB3D4B01221A7000224E49204600F050
:1018D00017FDB0B10021204600F05DFD0121064654
:1018E000204600F058FD0546304604F0AFFB3D4B66
:1018F0001870284604F0AAFB3E4B18702E4B0122AC
:101900001A7000224049204600F0FAFCB0B10021D4
:10191000204600F040FD01210646204600F03BFD38
:101920000546304604F092FB304B1870284604F010
:101930008DFB324B1870204B01221A700022334964
:10194000204600F0DDFC50B10021204600F023FDD0
:1019500004F056FB2E4B1860174B01221A70002220
:101960002C49204600F0CCFC80B10021204600F03C
:1019700012FD04F045FB284A284B0028B4BF12682A
:1019800052F820201A600C4B01221A7000222449C0
:10199000204600F0B5FC00284CD00021204600F085
:1019A000FAFC04F053FBC0B201283BD100223CE01A
:1019B00033AA0000B0B4FF1F50A1FF1F43AA0000CC
:1019C0007488FF1FACB4FF1F53AA00002CA1FF1F97
:1019D00066AA000028A1FF1F77AA000029A1FF1F07
:1019E00088AA0000E6B4FF1F9EAA00004EA1FF1FB8
:1019F000B4AA00004CA1FF1FC3AA00004DA1FF1F05
:101A0000D2AA0000E1AA0000F2AA000003AB000085
:101A1000B0B9FF1F1DAB00002487FF1F74CCFF1F50
:101A20002FAB0000022802D101223D4B1A703D4B22
:101A300001221A7000223C49204600F061FC50B19E
:101A40000021204600F0A7FC04F000FB374B187083
:101A5000344B01221A7000223549204600F050FC18
:101A600050B10021204600F096FC04F0EFFA314B13
:101A700018702C4B01221A7000222F49204600F0CA
:101A80003FFCF8B10021204600F085FC04F0DEFAAE
:101A90002A49C5B22A48FFF75FFD00230A222946DA
:101AA000274801F041FE264801F01AFE012D01D120
:101AB000002202E0022D02D10122224B1A70194BA2
:101AC00001221A7000222049204600F019FC98B12A
:101AD000144D1E482B780A2183F001032B7000F06F
:101AE0008DF91B491648FFF737FD2978144801F096
:101AF00056FE134801F0F4FD00221649204600F07E
:101B0000FFFB50B10021204600F045FC04F09EFA96
:101B1000114B1870034B01221A7002B070BD00BF48
:101B200079CCFF1F50A1FF1F44AB00007ACCFF1FF0
:101B30005DAB00007BCCFF1F73AB000087AB0000E8
:101B40007488FF1FB4B4FF1F93AB00007CCCFF1F51
:101B5000A7AB0000B0AB000078CCFF1F30B500236E
:101B6000074D084C194655F8232002EB4202A018F5
:101B70000133B3F5966FA15441708170F3D130BD3C
:101B800084A1FF1F1893FF1F012808B50ED1204B19
:101B900019221A701F4BB4221A701F4BFF221A70A1
:101BA0001E4B1B78002B32D01D492CE002280CD193
:101BB000174B14221A70174AFF231370164A13701A
:101BC000164B1B781BB317491DE003280DD1104B92
:101BD00080221A700F4BC8221A700F4BFF221A7006
:101BE0000E4B1B789BB110490DE004280FD1084B18
:101BF000E6221A70074AFF231370074A1370074B37
:101C00001B7823B109490A48FEF740FF08BD08BD0B
:101C10004CA1FF1FE6B4FF1F28A1FF1F44A1FF1F17
:101C2000C6AB0000ECAB00000EAC000033AC000013
:101C30007488FF1F38B5124B1A7805461C461AB136
:101C400010491148FEF722FF104B114901221A706A
:101C50002846002200F054FB80B123781BB10D49C7
:101C60000948FEF713FF0021284600F094FB04F01A
:101C7000EDF9BDE83840C0B2FFF786BF38BD00BF00
:101C800044A1FF1F55AC00007488FF1F50A1FF1F27
:101C9000AAA800006BAC000070B50024047044706A
:101CA000847061B1165D3EB11D5D2DB1013506FB3D
:101CB00005554D432D0C05550134032CF2D170BD53
:101CC000F8B51E1E036805461446D8BF00240F460B
:101CD0009B6804EB4404D8BF1646984739192B6813
:101CE00069606E615B692846984740B1054A064BBA
:101CF00093FBF0F0536883422CBF5360506028463A
:101D0000F8BD00BF7CCCFF1F40420F0010B5064B52
:101D10001B683BB10C7848788A789A731C735873A7
:101D20009B68F6E710BD00BF8CCCFF1F73B50D4C50
:101D30002268531C8A42236012DB0B4E0B4D326823
:101D400001924FF47A7201995A432B68CB1AB2FB75
:101D5000F3F343800023236033680093009B2B60E0
:101D600002B070BD90CCFF1FD4CCFF1F98CCFF1FDA
:101D70002DE9F74F1F4C05460E466B6833B101F055
:101D80007BFF2368C01A6B689842F6D301F074FF9A
:101D9000184B1860EB681BB13046A9689847064697
:101DA000154B1C684FF0000BE4B16B88A77CD4F88E
:101DB0000490D4F814A0632B236898BF84F812B061
:101DC000D3F8048004F10C0204F10F03314601A89A
:101DD000FFF762FF204601AB52464946C047A77451
:101DE000A468E1E719212846FFF7A0FF03B0BDE88A
:101DF000F08F00BF94CCFF1F8CCCFF1FF7B50A4BB0
:101E00001A680092009F05460E461C46297828460F
:101E1000FFF7AEFF03F0E4F823680193019BDB1B9F
:101E2000B342F3D303B0F0BDD4CCFF1F0020704702
:101E3000044BFF221A7000225A80DA604FF0FF3202
:101E40009A6070477CCCFF1F2DE9F0438B42079CC2
:101E500014D292F800E0A578277884F800E092F890
:101E600001E0667884F801E092F802E095700D4692
:101E700084F802E01946177056702B4692F800C09D
:101E800092F801E092F80280A27827786678C8EB91
:101E90000202D5015A1ACCEB0707CEEB060692B226
:101EA000FF01F6010AB112B200E0012297FBF2F73E
:101EB00096FBF2F67F00760095FBF2F25200BFB27D
:101EC000B6B292B24FEA0C2C4FEA0E2E4FEA08241B
:101ED0008B421AD301EB410800EB08054FEA2C298D
:101EE00000F808904FEA2E2885F80180BC444FEA9C
:101EF0002428B6441444013185F802801FFA8CFC72
:101F00001FFA8EFEA4B289B2E2E7BDE8F0834FEA81
:101F1000221CF0B512F00F020CEB4C0E8E4405D0D3
:101F20009DF81460003618BF012600E016469EF8A2
:101F300000509EF801409EF802700EB3120182F02C
:101F4000FF06BCF10F0F18BF0EF1030101367543F8
:101F5000C5F3072E0D780132744355437E43C6F313
:101F600007270EEB25258E78C4F3072E4C785643B1
:101F700054430EEB242407EB2626EDB2E4B2F7B26D
:101F8000FF2B15D08BB15A1CD3B21DB103FB0555E5
:101F9000C5F307251CB103FB0444C4F307243FB178
:101FA00003FB0776C6F3072702E01F461C461D46C3
:101FB000057044708770F0BDF0B506784478857878
:101FC000F300DFB2562006F0400217FB00F016F0D7
:101FD000800F4FEA102006F0200602F0FF0E1DD100
:101FE00006F0FF0352B91EB980F0FF06024637E043
:101FF00000F15502D2B2AB20734632E04EB9AB22AB
:1020000017FB02F63612961BA0F15602F6B2D2B2B8
:1020100026E00026C243D2B2034621E082B906F090
:10202000FF0C4EB9AB2217FB02F31B0AD21A553331
:10203000D2B2DBB2604614E0C343DBB2724610E0BA
:1020400006F0FF022EB900F15506F6B2C0F1AB035F
:1020500005E0A0F15606F6B20022C0F15503DBB24E
:102060003046FF2C1FD0DCB118B104FB0000C0F3D8
:1020700007201AB104FB0222C2F307221BB104FBA2
:102080000333C3F30723E443E4B204FB0444C4F37F
:102090000724204422442344C0B2D2B2DBB202E07F
:1020A000FF231A461846FF2D1CD015FB05F40035FA
:1020B00018BF012505EB142414F0FF040FD018B14C
:1020C00004FB0000C0F307201AB104FB0222C2F394
:1020D00007223BB104FB0333C3F3072302E023468B
:1020E0002246204608704A708B70F0BD002370B500
:1020F000037073238360044608460D4604F060FFB6
:102100000130606004F010F8064610B90323237014
:1021100003E0294604F0F2FE2661204670BD00224D
:1021200002706922826004224260016170470022CD
:10213000027066228260042242600161704713B51A
:1021400003468DE80600002119707421996008216A
:1021500059609DE8030003F1100484E80500184667
:1021600002B010BD10B5002404700824446064243B
:102170008460C0E9042310BD2DE9F34115466222B5
:1021800082602A0E8DF80420C5F3074200238DF8E3
:102190000520C5F30722044603708DF80620281D8C
:1021A0008DF80750019F60609842884600970EDDC9
:1021B00003F0BAFF064610B90323237008E040F885
:1021C000047B2A46414601F0B3FB266100E023610F
:1021D000204602B0BDE8F0814368002B10B50446EC
:1021E00007DD8368732B01D0622B02D1206903F0D5
:1021F000A3FF204610BD02220270002281604260CF
:1022000070478368662B0CBF00690020704782B05E
:10221000C3788DF8043083788DF8053043788DF8D5
:10222000063003788DF80730019802B07047836854
:102230008B42CBBF4368042353F821000373D8BFFC
:10224000002070472DE9F0411F4683688B42044609
:102250000D4616461BDDFFF7EAFF804628B1FFF763
:10226000BBFF1821404601F083FC182001F07EFCE2
:1022700080463A463146FFF77FFF98F80030032B3F
:1022800001D103231FE0636843F825801CE019D1C6
:10229000182001F06BFC05463A463146FFF76CFF0B
:1022A0002B78032BEDD0A16860680131890004F020
:1022B00081FA0028E5D0A368606040F8235001331C
:1022C000A36001E0042323732046BDE8F08137B505
:1022D00005460068144601AB6A46204400F08EFDB6
:1022E0000328009B09D0002B06DD2A681A44125DE2
:1022F0002F2A18BF002300E00023184603B030BD8A
:1023000007B500686B46104401AA00F077FDC31EB4
:102310005842584103B05DF804FB70B515461A46A3
:1023200006461C46FFF7D3FF011E04DD304621445C
:10233000A847012070BD002070BD70B50E46044650
:10234000006803F0F9FE304604F03AFE013003F075
:10235000EBFE054610B90323237302E0314604F077
:10236000CDFD2560204670BD027B003238B518BF18
:10237000012205460024AB689C420ADA2146284621
:10238000FFF755FF03780134002B18BF42F001021C
:10239000F1E7104638BD10B50246FFF748FF044686
:1023A0001046FFF7E1FF20B92046BDE81040FFF7D7
:1023B00028BF002010BD10B50246FFF738FF0446C5
:1023C0001046FFF7D1FF08B9207A10BD002010BDDC
:1023D0002DE9FF4106460C46FFF7C6FF002840F0F6
:1023E0009C803768384604F0EBFD2368421C554258
:1023F0005B683946204605F003059847013D6B1C94
:1024000023681B6803D0002120469847F6E72C215B
:10241000204698470027B568AF420ADA2368394654
:1024200030461D68FFF7C7FF01462046A847013721
:10243000F1E7ED4315F0030508BF042515F1FF355D
:1024400003D24FF0000802AF09E0236800211B68A7
:1024500020469847F2E7542B4AD108F10108B368A7
:1024600098455ADA41463046FFF7E1FE8368732B00
:10247000054601D0622B12D123686A6829695B681E
:10248000204698476D686D4205F0030515F1FF354C
:10249000E3D3236800211B6820469847F6E7642BA6
:1024A0000AD11735002215F80139D3550132082A0F
:1024B000F9D123685B682CE0742BCCD1103595E8FA
:1024C000030087E803003846FFF7A1FE2368019068
:1024D00004220DEB02015B682046984703A8FFF732
:1024E00096FE2368019004225B680DEB020111E067
:1024F000462BB2D0C37C8DF80830837C8DF8093030
:10250000437C8DF80A30037C8DF80B3023684268D9
:102510005B683946204698479FE7304604B0BDE8DF
:10252000F08138B58369002B0D460446416906DD0C
:1025300003694A1C42615D548369013B0AE0113121
:10254000006904F037F9206130B163695A1C626197
:10255000C5541023A36138BD0323237338BD10B5C0
:1025600010210446006904F025F9206110B1102300
:10257000A36102E00323237320610023636110BD84
:1025800038B5002504460560856005734560056122
:1025900045618561FFF7E3FF657338BD38B50446D3
:1025A0000D46FFF7EDFF29462046FFF7C6FE204601
:1025B00038BD10B50446FFF7E3FF0223237320461E
:1025C00010BD70B5002504460573A3689D420DDA61
:1025D00029462046FFF72BFE064628B1FFF7FCFDF3
:1025E0001821304601F0C4FA0135EEE7606803F0C7
:1025F000A3FD002320466360A3606373FFF7AFFF72
:10260000204670BD10B50446006803F095FD2046D5
:10261000FFF7D7FF206903F08FFD204610BD10B5EE
:1026200001690446FFF789FE002323732046BDE8B5
:102630001040FFF794BF70B5044618200E4601F015
:1026400095FA05463146FFF7D6FD2B78032B02D1CC
:10265000032323730DE0A16860680131890004F051
:10266000A9F80028F4D0A368606040F82350013333
:10267000A360204670BDF8B583688B4204460D46C2
:10268000164619DDFFF7D3FD074628B1FFF7A4FD75
:102690001821384601F06CFA182001F067FA074655
:1026A0003146FFF73CFD3B78032B01D103231EE0AD
:1026B000636843F825701BE018D1182001F056FA22
:1026C00005463146FFF72BFD2B78032BEED0A16892
:1026D00060680131890004F06DF80028E6D0A36835
:1026E000606040F823500133A36001E004232373AA
:1026F0002046F8BDF8B583688B4204460D46164661
:1027000019DDFFF794FD074628B1FFF765FD182195
:10271000384601F02DFA182001F028FA0746314614
:10272000FFF705FD3B78032B01D103231EE063680F
:1027300043F825701BE018D1182001F017FA054660
:102740003146FFF7F4FC2B78032BEED0A1686068CC
:102750000131890004F02EF80028E6D0A3686060FB
:1027600040F823500133A36001E004232373204683
:10277000F8BD2DE9F0411F4683688B4204460D46A3
:1027800016461BDDFFF753FD804628B1FFF724FDF9
:102790001821404601F0ECF9182001F0E7F98046D5
:1027A0003B463246FFF7DEFC98F80030032B01D1A0
:1027B00003231FE0636843F825801CE019D118202B
:1027C00001F0D4F905463B463246FFF7CBFC2B78A7
:1027D000032BEDD0A16860680131890003F0EAFFA6
:1027E0000028E5D0A368606040F823500133A3605F
:1027F00001E0042323732046BDE8F081F0B585B0E5
:102800008DE80C0083688B4204460F466E461FDD40
:10281000FFF70DFD054628B1FFF7DEFC182128461D
:1028200001F0A6F996E8030002AD85E80300182040
:1028300001F09CF9064695E80600FFF780FC337826
:10284000032B01D1032324E0636843F8276021E0D0
:102850001ED1009B02931820019B039301F086F97F
:1028600004AB054613E90600FFF769FC2B78032B40
:10287000E8D0A16860680131890003F09BFF00285F
:10288000E0D0A368606040F823500133A36001E00A
:1028900004232373204605B0F0BDF8B583688B424E
:1028A00004460D46164619DDFFF7C1FC074628B160
:1028B000FFF792FC1821384601F05AF9182001F070
:1028C00055F907463146FFF711FC3B78032B01D140
:1028D00003231EE0636843F825701BE018D118201D
:1028E00001F044F905463146FFF700FC2B78032B35
:1028F000EED0A16860680131890003F05BFF002819
:10290000E6D0A368606040F823500133A36001E083
:10291000042323732046F8BD30B50A4685B004462B
:102920000025A3689D4280F2998029462046FFF742
:102930007EFC0378022B40F08F808368623B122B71
:1029400000F28C80DFE803F0708A398A208A8A0AD4
:102950008A8A8A8A8A8A8A8A8A6952006369042BE7
:102960007CD123691A7859789878DB788DF808300B
:102970008DF809008DF80A108DF80B20029A29466F
:102980002046FFF778FE14E06369042B66D12369C3
:102990001A7859789878DB788DF808308DF8090026
:1029A0008DF80A108DF80B20029A29462046FFF771
:1029B000A1FE2046FFF7D3FD50E06369082B4DD1FF
:1029C0002169086849686A4603C20DF1070213F1DC
:1029D000FF3304D31DF8031002F8011FF7E7DDE908
:1029E000022329462046FFF7C4FEE2E76369082B6D
:1029F00034D122695168106802AB02AA03C31046A1
:102A0000FFF705FC029003A8FFF701FC03900CCA36
:102A100029462046FFF7F2FECBE7FAB9226929469C
:102A20002046FFF73AFF11E06169042916DD2269AB
:102A30001068029002A8FFF7EAFB034604308142C7
:102A40000CD1043229462046FFF7FCFB2046FFF755
:102A500086FD0623637301E0013562E705B030BDF2
:102A600038B504460D46FFF75CFD637B062B48D85E
:102A7000DFE803F004080F18202E34002F2D40D17A
:102A800001233CE0002D3CD12046FFF7C8FD022386
:102A900035E02C2D35D1032363732046BDE8384043
:102AA000FFF75DBD25B129462046FFF7C4FD01E0D3
:102AB00004236373A268D34313F0030308BF042302
:102AC000134462699A421CD12046FFF748FD15E085
:102AD00029462046BDE83840FFF71EBFA268013AEC
:102AE000002A0EDB11462046FFF7A1FB0378002BDE
:102AF000F5D143685B4213F00303E2D1052363730E
:102B000038BD38BD10B50446FFF7AAFF204610BDFA
:102B10000020704770B5044601250326206903682C
:102B20001B69984758B3637B93B9206903689B6915
:102B30009847C0B2DB2801D1667304E0C02801D0F9
:102B4000012070BD6573206903685B699847E5E7FC
:102B5000032BF5D0012B0CD1206903689B699847A2
:102B6000C02808D120690223637303685B69984712
:102B700004E0022B02D10020607370BD002070BD04
:102B800038B504460325206903685B699847637B71
:102B9000C0B233B9DB2801D16573F4E7C02808D08F
:102BA00038BD032B05D10023DC28637304D0DD2856
:102BB00004D04FF0FF3038BDC02038BDDB2038BD19
:102BC00010B50446006903689B699847637B032B33
:102BD000C0B207D1DC2802D0DD2802D010BDC02051
:102BE00010BDDB2010BD70B505460C468E180020C8
:102BF000B44206D02B6814F8011B1B68284698477E
:102C0000F6E770BD00690368DB681847C02910B596
:102C10000446006908D10368DB211B6898472069D6
:102C20000368DC211B6808E00368DB291B6804D10A
:102C30009847206903681B68DD21BDE810401847EC
:102C400010B54FF47A7400228460034C0271027351
:102C500004600161427310BD80AC0000437B022B15
:102C600010B5044603D100236373012010BD012B6E
:102C700011D1006903681B6998470028F3D02069C7
:102C800003689B699847C0B2C028ECD120690368EB
:102C90005B699847E7E7002010BD00690368DB69BE
:102CA000184700690368C0211B681847FFF7F9BF80
:102CB00030B54378212B15BF01220022431C831C11
:102CC00082F001001C785D2C11D074B15D782D2D3F
:102CD0000D7806D1AC4202D89C78AC4206D20333C0
:102CE000F0E7A54202D00133ECE730BD104630BD1D
:102CF00070B501300E4603787D2B1CD0CBB12F2B45
:102D000019D00246154615F8013B7D2B07D1141A40
:102D10002246314604F0C2F948B12846EBE7002BC1
:102D2000F5D02F2BF3D02C2BF1D02A46EAE7204602
:102D300070BD184670BD002070BD10B402785D2AC9
:102D400003460C460AD004D83F2A1ED05B2A0BD07B
:102D500016E07B2A11D07D2A09D011E01846013BEC
:102D600002785B2AFAD1214610BCFFF7A1BF1846B2
:102D7000013B02787B2AFAD1214610BCFFF7B8BF8D
:102D80002078831A5842584100E0012010BC704757
:102D900070B504460E46314616F8013B25782F2BB8
:102DA00002D12F2D02D127E053B9FAE725B32A2DFE
:102DB00020D160782F281FD0B0FA80F0400970BD74
:102DC0002A2D05D1601CFFF7E3FF0028E3D013E0B4
:102DD0002046FFF7B2FF80B105F0DF055B2D07D17C
:102DE000224614460132237803F0DF035D2BF8D12D
:102DF0000134D0E7002070BD012070BD2DE9F04FF7
:102E000085B0824689468DE80C0003F00DFF58B965
:102E1000504604F0D5F8009B1860484604F0D0F8FE
:102E2000019B18600320E2E0009A00231360019ADE
:102E30004D46136054462B78002B00F0C88026784E
:102E4000002E00F0C4802A2E40F09480AB462B4622
:102E50001F4613F8012B2F2A01D0002AF8D1214652
:102E600000230E4611F8012B2F2A04D01AB12A2A6A
:102E700008BF0133F5E7012B06F1FF3607F1FF37F5
:102E800017D0022B2FD05EE039463046FFF755FFB2
:102E9000002800F0AC8005F0DF055D2D07D132463B
:102EA0001646013A337803F0DF035B2BF8D1013E7D
:102EB000013F35782A2DE7D12EE039463046FFF71D
:102EC0003CFF002800F0938008F0DF08B8F15D0FA8
:102ED00007D132461646013A337803F0DF035B2B05
:102EE000F8D1013E013F96F80080B8F12A0FE4D1F5
:102EF0000137BD4225D2013F06F1FF383A4698F826
:102F000000302A2B06D01146404603930292FFF769
:102F100014FF18B94445ECD123461CE0039B029AE8
:102F200003F0DF035D2B08D141468846013998F84C
:102F3000003003F0DF035B2BF7D108F1FF38013AD3
:102F4000DDE7002053E029462046FFF721FF002857
:102F5000E2D14CE042B11C4613F8012B2F2AF9D1E3
:102F600002E0002B3FF467AF5D461BF8013B2F2BBF
:102F7000F7D160E72A2B11D123461C4613F8012B09
:102F80002F2A01D0002AF8D12B461D4613F8012B19
:102F90002F2A3FF450AF002AF7D14CE729462046AC
:102FA000FFF7CBFE18B35B2E05D1234601341A7808
:102FB0005D2AFAD109E07B2E06D1234601341A7826
:102FC0007D2AFAD1054436E70134013533E7009A0A
:102FD000CAEB04031360019AC9EB05031360287858
:102FE0002378B0FA80F040090BB940F0020005B038
:102FF000BDE8F08F08B5064B1A79064B1A7000F041
:103000003BFE054B1860054B00221A7008BD00BF3F
:10301000C0CCFF1F1F800040A4CCFF1FBCCCFF1FF3
:1030200010B5044600F098FA204610BD036800224F
:103030009A8202229A71B1F1804F1961036801D31B
:103040009A680AB904229A60036800229A6170475C
:103050000268D38B1B0407D4B1F5004F13D289B299
:10306000D1830368D9827047B1F5007F0BD2D38B2F
:1030700089B203F47E430B43D3830268D38A03F4FB
:103080007E431943D182704710B5054C2180054914
:103090000A60054A1360054B9DF808201A7010BDA0
:1030A000ACCCFF1FA8CCFF1FB8CCFF1FA0CCFF1FCC
:1030B0002DE9F843934B944E1B88306818245C43E9
:1030C0002246002100F0CEFC904B186820B1224629
:1030D000002100F0C7FC01E032681A608C4B8D4F74
:1030E000FF221A600121022000F094FD01210E2030
:1030F00000F090FD0121072000F08CFD0121082047
:1031000000F088FD0121062000F084FD012114203B
:1031100000F080FD0121152000F07CFD012105203B
:1031200000F078FD7C4B7D491A787D4B7D4802F09C
:10313000F002102A0CBF1A460A467B49002303609E
:103140000B607A4955082944B1FBF2F27849551EC3
:103150000D60082101606921C16041613C2151433A
:10316000090A0161B0214A437249734D120A0A608B
:10317000724A734911603A68B5F1804F15609380C7
:10318000D371A84601D3916809B901219160D36038
:103190006C496048FFF74AFF3B68B3F9041001220D
:1031A0009A6001B19A80B3F914200AB101229A827F
:1031B000DA88584822F4E06222F00702DA802146D9
:1031C000FFF746FF3A686049938B9BB243F00803D0
:1031D000938332685D4E33681A600022DA7162426E
:1031E0004FF00109DA60A2B2DA83A3F80490DA8220
:1031F000C3F808903046FFF719FF3368B3F904208D
:10320000C3F808900AB1A3F80490B3F914200AB1E6
:1032100001229A82DA884D4822F4E06222F0070205
:10322000DA802146FFF714FF32684949938B9BB23D
:1032300043F0080393830B680022B5F1804FC3F875
:1032400000809A80DA710D4601D3996809B901218D
:103250009960DA602E493E48FFF7E8FE2B68B3F923
:10326000041001229A6001B19A80B3F914200AB1C6
:1032700001229A82DA88364822F4E06222F00702BC
:10328000DA802146FFF7E4FE2A683148938B9BB22F
:1032900043F008039383938B9BB243F00203938321
:1032A0003B7903F1804303F504330022B2211A7005
:1032B0001970337903F1804303F50433A2211A70A6
:1032C00019702B79214903F1804303F504331A70F7
:1032D000A3221A700F4A00F059F92A791D4B1E4893
:1032E00002F1100143F8210053119B0003F16043E8
:1032F00003F5614302F01F02012101FA02F21A6094
:10330000BDE8F883ACCCFF1FA8CCFF1FB8CCFF1FD3
:10331000C8F00F40B0CCFF1FA0CCFF1F00350C0041
:10332000801A060000800B4004800B4000512502EB
:1033300008800B4018800B405888FF1F48A00440AD
:1033400000030100C4F00F40C0F00F40C8CCFF1FC5
:10335000C0CCFF1F0082FF1FF52F000010B5264ACA
:103360001378002BFCD1254B1968254B1868814236
:1033700005D0244B1B8818225A4300F0D9FA224C5E
:1033800000F07AFC2368C01AB0F5967FF8D31F4886
:103390001F4B282202601A601E4A126872B61E4C29
:1033A00021688A421C49FBD20C68A242FCD30C68FB
:1033B000A242FCD8194C1849002222600A600E4A29
:1033C00001211170164A4FF48021116028210160FB
:1033D000026869220260196019681A60114B1A7933
:1033E000114B1A70114A12791A70114A12791A7017
:1033F0000823236062B610BDBCCCFF1FB8CCFF1FF2
:10340000A8CCFF1FACCCFF1FA4CCFF1F0C800B402F
:1034100014800B4010800B4004800B4000800B4058
:10342000A0A00440B0CCFF1F1B800040C8CCFF1FF1
:10343000C0CCFF1F70B5114E114D124C304600210B
:1034400000F036F83046104E2A46214602F03CF88D
:103450003046002100F02CF830460C4E2A4621461A
:1034600002F032F83046002100F022F82A462146C8
:103470003046BDE8704002F027B800BFB0CCFF1F57
:103480002087FF1F21300000C8CCFF1FC0CCFF1FCA
:1034900000F0FC0303F1804303F50143C0001B6807
:1034A00000F018001BBA23FA00F000F00F0070477C
:1034B00030B572B6254C89B9016879B103790F2B03
:1034C0000CD822881A41D20708D503F1007303F5FE
:1034D0009063B1EB431F01D162B630BD2188002358
:1034E00041FA03F212F0010227D101259D40294340
:1034F000218062B6164DD9B201712C6844F00204E5
:103500002C6055F8044C03F1007344F0020445F8B4
:10351000044C03F590630F4C5B0182252560A17676
:10352000A1772176E17703601A605A609A60DA60C9
:103530001A615A619A61DA6130BD0133102BCFD123
:1035400062B600220260037130BD00BFD0CCFF1F05
:10355000408004400080004003790F2B10D8094AB6
:10356000137072B608490279012303FA02F20B883C
:1035700023EA02030B8062B6102303710023036069
:10358000704700BF1A800040D0CCFF1FF8B50D79FE
:1035900004462846FFF77CFF167907463046FFF7BA
:1035A00077FF874205D20E7115710B6810680860AD
:1035B000136025792846FFF76BFF0E7907463046E2
:1035C000FFF766FF874205D226710D7123680868F0
:1035D00020600B600C792046FFF75AFF15790646EC
:1035E0002846FFF755FF864205D20D7114710B680E
:1035F000106808601360F8BD0368C9B21B681847FB
:103600000368C9B21B6818470368C9B21B6818472A
:103610000368C9B21B68184708B5084600F05CFD8E
:10362000012008BD08B5084600F056FD012008BD80
:1036300038B508460D4603F0C3FC0446014628464B
:1036400000F09AFD204638BD10B5084614461146D4
:1036500000F092FD204610BD00F05ABE08B50846A5
:1036600000F014FD003018BF012008BD08B5084661
:1036700000F0EAFC003018BF012008BD08461146E2
:1036800000F086BC084600F0B9BC084600F064BCF7
:1036900000F00CBC034B03EB5100B0FBF1F000F069
:1036A00073BB00BF0044950810B5064B144603EBEE
:1036B0005100B0FBF1F000F067FB2046BDE8104080
:1036C00000F0CABB0044950800F00ABE00F0DEBD61
:1036D00000F0CCBD00F0AEBD00F0B6BD7047FFFFFE
:1036E00007B5064B1B88ADF80430036802225B68FF
:1036F00001A9984703B05DF804FB00BFFCAC0000D3
:1037000010B5036814465B689847204610BD0EB498
:1037100003B503AA52F8041B019203F075FD02B031
:103720005DF804EB03B0704770B505468AB022B966
:103730000368C9B21B6898472FE0012A08BF0A2214
:1037400009B1212004E030228DF82520212014E049
:10375000B1FBF2F602FB1611CCB2092994BF04F1B9
:10376000300104F137010AAC0444C9B204F8241C46
:10377000314616B10138C0B2EAE733B10138C0B200
:103780000AAB03442D2203F8242C2B6801A9C0F1B5
:10379000220201445B68284698470AB070BD0029A0
:1037A000BABF49422D2300230A22FFF7BDBFFFFF06
:1037B0002DE9F04F85B007461946104615461C46C0
:1037C0009DF8386002F0D8FA08B14D4912E024F0B3
:1037D00000484FF0FF324B4B2846414602F0CCFAEE
:1037E00068B94FF0FF32474B2846414602F0A6FA2F
:1037F00028B945493846FDF7AFFE804676E04FF0E0
:103800006042424B2846214602F0ACFA08B14049DA
:10381000F0E74FF060423F4B2846214602F084FA21
:103820000028F4D1002200232846214602F07CFA29
:1038300020B104F100444FF0010800E08046364911
:103840004FF0000900205FFA89F39E4207D92AA3AE
:10385000D3E9002301F0F6FF09F10109F3E702467D
:103860000B462846214601F03BFE0D46044602F079
:1038700099FA4346014681460A223846FFF754FF2B
:1038800080469EB3484601F067FF0B460246294634
:10389000204601F023FE0F2E4FF02E0328BF0F26E7
:1038A0008DF800300DF101053446013CE4B2FF2CE7
:1038B00015D00022194B01F0C5FF8B46824602F05D
:1038C00071FAC0B200F1300305F8013B01F054FF7A
:1038D00002460B465046594601F000FEE5E73B68BC
:1038E000721C5B68D2B2694638469847404605B0BC
:1038F000BDE8F08FAFF30080000000A09999B93FB8
:10390000FEAC0000FFFFEF7F06AD0000FFFFEF41C0
:1039100002AD0000FFFFEFC10000E03F00002440C7
:1039200008B5FCF781FFFCF7E1FF01F059FBFAE76E
:10393000844641EA000313F003036DD1403A41D3BA
:1039400051F8043B40F8043B51F8043B40F8043B79
:1039500051F8043B40F8043B51F8043B40F8043B69
:1039600051F8043B40F8043B51F8043B40F8043B59
:1039700051F8043B40F8043B51F8043B40F8043B49
:1039800051F8043B40F8043B51F8043B40F8043B39
:1039900051F8043B40F8043B51F8043B40F8043B29
:1039A00051F8043B40F8043B51F8043B40F8043B19
:1039B00051F8043B40F8043B51F8043B40F8043B09
:1039C000403ABDD2303211D351F8043B40F8043BA9
:1039D00051F8043B40F8043B51F8043B40F8043BE9
:1039E00051F8043B40F8043B103AEDD20C3205D3B9
:1039F00051F8043B40F8043B043AF9D2043208D0B1
:103A0000D2071CBF11F8013B00F8013B01D30B8822
:103A100003806046704700BF082A13D38B078DD000
:103A200010F003038AD0C3F10403D21ADB071CBFD2
:103A300011F8013B00F8013B80D331F8023B20F83C
:103A4000023B7BE7043AD9D3013A11F8013B00F875
:103A5000013BF9D20B7803704B7843708B788370FD
:103A60006046704701B5EAB1102A17DB00F0070382
:103A700033B1C3F10803D21A013B00F8011BFBDC90
:103A8000C9B241EA012141EA01418C46D308013B18
:103A9000E0E8021CFBDC12F0070203D0013A00F858
:103AA000011BFBDC01BD00BF08B50B4D2C462B688C
:103AB000580301D500F098FD2368590501D500F0A1
:103AC0004BFC23681A0501D501F0D0FB2368DB0409
:103AD000EDD501F059FCEAE73480044008B5FFF762
:103AE000E3FFFFFF014B10221A80704700200540C2
:103AF0007047FFFF094908B50B6868B16A4618446A
:103B0000A2F58052904206D302F0C6FA0C2303605D
:103B10004FF0FF3008BD0860184608BD6C88FF1FD5
:103B20000078B0FA80F040097047012303707047B5
:103B3000EFF31380A8B9EFF31082A2B9EFF3058376
:103B400023B10F2B05D9084A985C03E04FF480702D
:103B500000E01046EFF311832BB1984228BF1846BE
:103B600070474FF0FF307047F0E300E002F0DCBA3E
:103B700002F0E2BA30B503460020B3FBF2F402FBD8
:103B80001433092B94BF30333733DBB20B54234645
:103B90000CB10130F1E70A1823465470C41AA3424D
:103BA00006DACC5C1578CD5402F801490133F5E70B
:103BB000084630BD044B054900221A600A60044AD9
:103BC000106010221A60704714D0034004D00340E4
:103BD00000D00340212810B518D80D4B53F83020E1
:103BE00092F880423CB1012311B182F8803010BDBF
:103BF00082F8003110BD03EBC0035B681A6811B195
:103C000042F0030201E022F002021A6010BD00BF80
:103C10000CAD0000212810B52BD8164A02EBC003CA
:103C200001295B68144601D004290FD154F83020D3
:103C3000012082F880024FF4A2721A601A680429E7
:103C40000CBF42F0200222F0200211E052F83000B6
:103C5000002280F8802211B94FF4807208E0022916
:103C600002D140F2031203E0032908BF4FF481722E
:103C70001A6010BD0CAD000072B60C4B0C4A0D4919
:103C80001B681268096862B6490102D5322B88BFE9
:103C90000132C3F58C33482003F23F13B3FBF0F33A
:103CA0004FF47A7000FB0230704700BF18E000E06C
:103CB000D4CCFF1F04ED00E038B50446FFF7DCFF6D
:103CC000054624B938BD013C0AD005F57A75FFF7E1
:103CD000D3FF401BB0F57A7FF5D201F081F9F6E70A
:103CE00038BDFFFF214B4FF4000210B51A604FF0B2
:103CF00080721A604FF000721A604FF080621A6092
:103D00004FF000621A601A4B1A4A1B4C002048F60A
:103D1000FF711860596028231360936013619361E9
:103D200013629362136393630922226004F5805443
:103D3000043420606160A360236144F8042C04F51E
:103D4000FE2420600D4801600D490B608B600D4B17
:103D50001A6001F01FFA3220FFF7AEFF00F050FFAB
:103D60004FF4AF70BDE81040FFF7A6BF08E100E0D8
:103D7000048003400C8003400080034008800B4017
:103D80000C800B4000800B40254A136843F480638D
:103D90001360244A00231370234A1370234A1370BC
:103DA000234A1370234A1370234B1B782BB1152B16
:103DB00007D140F21332214B02E0214B40F2133283
:103DC0001A60204B1B78012B05D0052B07D14FF42F
:103DD00051721D4B02E01D4B4FF451721A601F28A7
:103DE0001B4B98BF2020C0F344321A70C0F3471217
:103DF0005A700221042200F01F0098729A70D97440
:103E00005A7588221A743C22DA70124B40226FF4E1
:103E10004A711A700B444FF400521A60704700BF89
:103E2000348004405FCDFF1FDDCCFF1F68CDFF1F36
:103E300060CDFF1FDCCCFF1F1ECDFF1F18C004404C
:103E400040A004407088FF1F1CC0044044A00440F0
:103E500000A006402DE400E0134B9A7802F0EC013C
:103E600000F003020A43410748BF42F010029A7073
:103E70000D4900F00F02042A02BF8A7942F0400285
:103E80008A715A79C30602F0EF02074B48BF42F02D
:103E900010025A719A79810602F0EF0248BF42F08F
:103EA00010029A71704700BF00A006401D4B1B68AE
:103EB0005B0510B500D410BD1B4C237803F0FF0246
:103EC00013B101F08DF8F8E7184B4FF40051196069
:103ED000174BDA70174B1B782BB1152B07D140F21B
:103EE0000312154B02E0154B40F203121A60144BFB
:103EF0001B7803F07F03012B05D0052B07D140F27F
:103F00000312104B02E0104B40F203121A600F4AEA
:103F1000002313700E4A13700E4B1B680BB1012265
:103F20001A7010BD34800440DCCCFF1F84E100E037
:103F300000A006401ECDFF1F18C0044040A0044052
:103F40007088FF1F1CC0044044A004405FCDFF1FC9
:103F5000DDCCFF1FD8CCFF1F0A4A38B504461378C2
:103F600003F0FF05002BFAD101212046FFF752FE96
:103F700029462046FFF72EFE034B53F83420034B0F
:103F80001A6038BDDCCCFF1F0CAD000064CDFF1FF4
:103F900010B509B140F08000144A137898421446D5
:103FA00022D0134A126852051DD503F07F03012B5E
:103FB00004D0052B05D100220E4B01E00E4B002250
:103FC0001A60002900F07F0214BF60234423012AF5
:103FD00005D0052A07D143F44073064A02E0064A99
:103FE00043F440731360207010BD00BF7088FF1F42
:103FF000348004401CC0044044A004400E4B1A7896
:10400000824218D00D490968490513D52AB1152AED
:1040100005D10B4A0021116001E00A490A6028B16C
:10402000152807D140F21331054A02E0054A40F253
:1040300013311160187070471ECDFF1F348004408B
:1040400018C0044040A0044038B50D4B1B6813F461
:1040500080634FF0000410D021280A4D0AD80A4B83
:10406000012153F830302B60FFF7D4FD2B681C7012
:10407000012038BD2C60204638BD184638BD00BF31
:1040800034800440D8CCFF1F0CAD00000E4B1B68E1
:1040900013F4806316D012280C4B03D140F2023186
:1040A0000B4A04E0142809D10A4A40F20231116097
:1040B0005A7B42F001025A73012070475A7B02F08A
:1040C000FE025A73002070473480044000A006406E
:1040D0000CA0044014C004402DE9F8431F4B1B689A
:1040E0005A05064637D51E4B1B680BB101221A70C4
:1040F0001C4DDFF880902C781B4F0134402C28BFDA
:104100000024C84699F80030A34219D1FFF710FDEA
:10411000402810DC3B791B06F4D599F80030134A8F
:104120000133402B28BF0023D25CDBB2D2B2FA713C
:1041300088F80030E6E7FF28E4DD00F051FFE1E712
:104140000A4BF6B21E550A4B01221A70064BE4B216
:10415000BC222C70DA70BDE8F88300BF34800440C4
:1041600064CDFF1F68CDFF1F00A00640DECCFF1FFF
:10417000DCCCFF1F60CDFF1F2DE9F84F264B1B68DD
:104180005A050646884645D5244B1B680BB10122CB
:104190001A70234FB246B94606EB08039A4536D249
:1041A0003C78204BDFF87CB01B780134402C28BFD2
:1041B00000249C420AD01C4B1AF8011B19551B4BBA
:1041C0000121E4B2197089F80040E5E7184DBC23DD
:1041D000EB70FFF7ADFC402810DC2B791B0611D5E6
:1041E0009BF80030104A0133402B28BF0023D05CDD
:1041F000DBB2C0B2E8718BF8003003E0FF2801DDCC
:1042000000F0EEFE9BF800309C42E2D0D3E7084B72
:10421000BC22DA70BDE8F88F3480044064CDFF1F03
:1042200068CDFF1F60CDFF1FDECCFF1FDCCCFF1F62
:1042300000A0064010B5034C237813B100F0D0FE67
:10424000FAE710BDDCCCFF1F064B1878064B1A7836
:10425000C0B2D3B298422CBF3F3303F1FF33181AD8
:10426000704700BF68CDFF1F60CDFF1F054B18785A
:10427000054B1A78C0B2D3B2984238BF4030C01A4A
:10428000704700BF5FCDFF1FDDCCFF1F10B5104B87
:10429000104C1B782278D9B2D2B2914214D0531C60
:1042A000402B28BF00230C4AD05CDAB222700B4AA4
:1042B0001268C0B252B18B4288BF4031CB1A1A2B60
:1042C00004DC0023137010BD4FF0FF3010BD00BFA1
:1042D0005FCDFF1FDDCCFF1F1FCDFF1FD8CCFF1F01
:1042E000084B1A78084B1B78DBB29A4207D001338F
:1042F000402B28BF0023054AD05CC0B270474FF066
:10430000FF3070475FCDFF1FDDCCFF1F1FCDFF1FAC
:104310000C4B1B685B0514D50B4BDA7802F0CB0213
:10432000DA7040225A74DA7842F03402DA70074BBD
:10433000074A1B78DBB21370064B1B680BB10022D7
:104340001A7070473480044000A00640DDCCFF1F87
:104350005FCDFF1FD8CCFF1FF0B534490B7913F0A8
:10436000300F2FD072B68B7D03F0FF0423B9CB79C9
:1043700040234B7462B625E062B62D482D4A03787F
:1043800012782D4FDBB2D2B20546581C4028CE79A8
:1043900028BF00209042F6B21CBF3E540346601E68
:1043A00010F0FF04F1D1D9B229702449096849B14C
:1043B000934236BFC2F140029B1A9B18272BC4BF01
:1043C00001230B70194AD178C9B20D061ED5137995
:1043D0001C061BD51A4B1B481D7803781A4EEDB2EC
:1043E000DBB2AB420AD00133402B28BF0023147943
:1043F000F45CE4B2D471147D072CF2D9DBB2037003
:104400000A4B1A79100644BF7C22DA7049060CD593
:10441000064B1A79520608D50C4A002111700C4A35
:10442000126802B111703C22DA70F0BD00A00640A3
:104430005FCDFF1FDDCCFF1F1FCDFF1FD8CCFF1F9F
:1044400068CDFF1F60CDFF1FDECCFF1FDCCCFF1F40
:1044500064CDFF1FF0B50C4C0C4E23780C4D43F08F
:10446000020706EBC70283F0010350602A7823702D
:10447000002A14BFC820882082F0010240EA0141CE
:104480002A7046F83710F0BDD4CDFF1F0080FF1F03
:104490004CCEFF1F431E032B10B510D872B6094A2D
:1044A00052F8230048B1416842F8231006490488B5
:1044B00031F81320121B21F8132062B610BD002022
:1044C00010BD00BFC4CDFF1FA4CFFF1F01380328BC
:1044D0000AD872B6054B53F82030002013B10130D2
:1044E0005B68FBE762B670470020704718CEFF1F7D
:1044F00070B472B6174C184901231A1912F8012C1E
:1045000012071DD59A00144E51F832502DB906EB02
:10451000431308305860114B09E042F0010251F892
:1045200032506DB906EBC203083058600C4B46F8A8
:1045300032300C4A1378013B137062B670BC70477E
:104540000133052BD9D162B6064B00221A7070BC1C
:1045500000F0CABB44AE00000080FF1F880040008E
:10456000C800400042CEFF1F431E032B10B532D8B7
:10457000194A400140F01000104472B6174AD45C4A
:10458000032C0BD8DFE804F018040207052414E01C
:104590000830022411E0083004240EE01048114ACB
:1045A00050F8234014B940F8231002E052F82300D9
:1045B000416042F823100DE00324D45410F0080F9A
:1045C00001F108030A88436014BFC823882343EA23
:1045D0000243036062B610BD0080FF1F80CDFF1F45
:1045E00018CEFF1F28CEFF1F2DE9F74FA94B1C78CF
:1045F000E4B214F0040F1D461AD0A74B1B78A3B1E8
:10460000A64A117801F0FF0321B1013BDBB2137020
:1046100003B900BEA24A117801F0FF0329B1013BA2
:10462000DBB213700BB900F0B7FC9A4A0423137085
:1046300004F0080303F0FF02002B00F07182994B95
:10464000994C1B78DBB21F094FEA930640F0EC81CE
:1046500004EBC603596854F83630C3F38303013BB7
:104660000C2B00F2DD81DFE813F09A019A01DB01E7
:10467000DB01DB01DB01DB01DB01B901DB01DB017C
:10468000DB010D000A68894D89484B682A600121C9
:104690006B60DFF85082874B017092B240F281600C
:1046A00044F8363082424FF00003C8F800302361EE
:1046B000A36117D8B2F5D06F80F02781B2F5817F62
:1046C00000F0D88006D8802A00F0C180822A00F04D
:1046D000C28035E140F202339A4200F00781B2F520
:1046E000A06F1AE042F22100824200F055810CD8FE
:1046F000B2F5086F00F0A580B2F5106F40F0208190
:10470000654AA97811701E460AE042F221218A42C8
:1047100000F00E8142F221339A4200F015810FE140
:10472000A219136A1F0603D5506A083800F0DCFA94
:104730000836802EF4D1DFF8B0915F4F0026CA46CC
:1047400059F826004FEA860B30B14268009200F01B
:10475000CBFA009A1046F7E7584B594A4AF80B0033
:104760004BF803005BF8020040B1416801920091F0
:1047700000F0BAFA0099019A0846F5E7514B42F861
:104780000B0023F816003B784F4A023B4BF802001F
:10479000032B07D8DFE803F002040204002300E043
:1047A00001233B700136042E07F10107C8D1474BA6
:1047B000474E404F00221A704FF0010B9946454A70
:1047C0000BEB06015A4411F8011C920011F0080F7E
:1047D00011704FEA8B0A24D000F068FA38B104EB6C
:1047E0004B1208303C4B506044F83A3006E099F8E0
:1047F000002044F83A00013289F8002000F056FA0F
:104800004AF0010230B104EBC2010830486044F8BC
:10481000327006E044F8320099F80020013289F83D
:1048200000204AF002010BF1010B4AF0030A0022BA
:10483000BBF1050F44F8312044F83A20BFD11346AC
:1048400083E0154B254E1B7833700B4680E0234EDA
:10485000337073707BE0AA8802F07F02042A6FD85D
:104860001E4E9200337073701D4B9B5C9C076ED57F
:1048700031706CE0AA8802F07F02042A60D86B884D
:10488000002B5DD11649920011440A7822F00202F1
:1048900039E000BF802007404BCEFF1FD5CDFF1F62
:1048A0004DCEFF1F902007400080FF1F38CEFF1F16
:1048B0004CCEFF1FC800400080CDFF1F70CDFF1FF2
:1048C00018CEFF1FA4CFFF1F28CEFF1F42CEFF1F11
:1048D00044AE000030C801108800400043CEFF1FE6
:1048E000C02007406CCDFF1FC4CDFF1FAA8802F077
:1048F0007F02042A24D86B8813BBA5499200114477
:104900000A7842F002020A701FE06A88A988A14B67
:104910005E68AEB11888904208D15888884205D1A7
:10492000120A032A0CBF33781B8911E00C33EFE71E
:10493000994A1168994A1160994AA978117004E05E
:10494000934B0F221A7027E000231E4600E002233B
:10495000EC889C4228BF1C46402C254628BF402599
:1049600030462946FFF776FD641B2E4403D1402DC7
:1049700012D1254603E0402C254628BF402530466D
:104980002946FFF767FD641B2E4401D1402D03D15A
:10499000844BC8F800601C800122834B3FE0834BAE
:1049A0001A8842F221039A4214D1814A0023C85C3A
:1049B00098540133072BFAD17D4B1B68862B08BF17
:1049C0007C4B4FF0000108BF0F22084608BF1A7049
:1049D000FFF740FD784B44F8363021E0774F3E68D2
:1049E000A6B1DFF8C081B8F80040402C254628BFAA
:1049F000402530462946FFF72DFD601B80B2A8F800
:104A0000000008B9402D00D170193860674B1A8832
:104A1000B2F5A06F04D100225A709A78684B1A70D0
:104A2000614B01221A7077E004EBC605013F6A680A
:104A300003F00803A2F10800FFB203F0FF0E002B01
:104A400036D000F051F95F485F4A50F82710E9B1BD
:104A50004B6840F8273001F108036B60D35D032BEE
:104A60000BD8DFE803F002040608032304E0022366
:104A700002E0052300E00423D35515F0080F0A884F
:104A800014BFC823882343EA024343E0D35D032BCA
:104A900007D8DFE803F041410204002306E00123C8
:104AA00004E015F0080F14BF03230223D35533E0AD
:104AB00054F836301B0C99B222F8081C23B3434B30
:104AC00022F806EC42F804EC53F82720DFF82CE13A
:104AD00012B943F8270002E05EF8273058603C4ADC
:104AE0004EF8270032F817300B4422F8173000F048
:104AF000DDF810B10830686006E0364A44F8360048
:104B000013780133137007E0334A2B4B15F0080F6D
:104B100008BF134644F83630304A0823137065E561
:104B2000E0071ED520492C482D4C02230B702D4B3D
:104B30001A702D4B186098602C48D8601A619A61E1
:104B40005C60134B0D2018702948FF2303702B70F5
:104B50000274284A1370284B9F221A7001230B708D
:104B600012E0210604D50A4B0D221A7080232B7007
:104B7000A20705D51E4A1378DBB2137002232B70EF
:104B8000E30644BF10232B7003B0BDE8F08F00BFD5
:104B9000C020074048AE0000D4CCFF1FB4CFFF1F99
:104BA0005CCEFF1F40CEFF1F9420074038CEFF1F72
:104BB000ACCFFF1FD5CDFF1FC80040006CCDFF1F3D
:104BC0009820074018CEFF1F80CDFF1FC4CDFF1FC8
:104BD000A4CFFF1F42CEFF1F880040008020074067
:104BE00084CDFF1FD4CDFF1F0080FF1FD8CDFF1F36
:104BF000882007408C2007408420074070CDFF1F8D
:104C000010B500F027FC0023194819461950C418A4
:104C10000833882B164A6160F8D116490B6843F4B3
:104C200080230B60144BC2F307211970C2F30741B4
:104C3000120E19751A76114AFF2313700021137290
:104C400002F8703C0123137582F8801013710C4B2D
:104C500070226FF450711A700B444FF400721A6096
:104C600003F1C04303F5C82310221A7010BD00BF22
:104C70000080FF1F348004409C20074080200740B4
:104C800049E400E000F0A2B800F076B800F04EB8B9
:104C900000F08EB800F052B900F02CB90846114669
:104CA00000F0ACB8084600F019B9704710B572B6FC
:104CB0000B480268B2FA82F10B2902DD62B60020CD
:104CC00010BD4FF00043CB4022EA0302026062B6FF
:104CD000044C48234B43E0180022E250426010BDD0
:104CE0008488FF1FBC83FF1F0C4B4822C31AB3FBF1
:104CF000F2F30B2B11D80A4A127822B1094A127822
:104D00000AB1FFF7F5BB72B607494FF0004222FA2D
:104D100003F30A681A430A6062B67047BC83FF1F38
:104D200042CEFF1F4BCEFF1F8488FF1F10B5104CD3
:104D300023686BB1206843885A1C03441C7A03889B
:104D40009A4212D3FFF7D0FF094B00221A600DE000
:104D5000084B1B7813B94FF0FF3010BD0320FFF74D
:104D600099FB20600028E5D1F5E74280204610BD80
:104D700058CEFF1F4BCEFF1F10B50B4C236813B14D
:104D800022686AB902E0094B1B7813B94FF0FF3073
:104D900010BD0320FFF77EFB20600028F0D1F5E76F
:104DA00053881344187A10BD58CEFF1F4BCEFF1FF7
:104DB000044B9888044B1A681AB1138852889B1ABE
:104DC00018447047A4CFFF1F58CEFF1F10B5094BE2
:104DD0001B786BB1084C206818B1FFF785FF0023E2
:104DE00023600320FFF756FB10B1FFF77DFFF8E7C4
:104DF00010BD00BF4BCEFF1F58CEFF1F2DE9F84F4F
:104E0000314DDFF8D490012382460C462B700E46BC
:104E10004F46002E53D0D9F800303BBBDFF8B0B07E
:104E200048F60148294B1B7803F0FF010BB92970A4
:104E300015E00420FFF74AFB072807D801232B7051
:104E4000FFF734FF386088B91F4B1870B8F10108BC
:104E500002D09BF8003033B11D4B01221A704FF085
:104E6000FF30BDE8F88F00F0BBF8DBE7184B0021FE
:104E7000197039684B88C3F14000B04228BF3046F2
:104E800003EB000E0B44A1F802E0361A07330AEBDD
:104E90000008C24504D01AF8010B03F8010FF8E727
:104EA0004B883F2B06D940230B800420FFF75CFB87
:104EB00000233B60074B05221A70C246A9E72E70FB
:104EC0002046BDE8F88F00BF4ECEFF1F4BCEFF1F20
:104ED00054CEFF1F4DCEFF1F50CEFF1F07B502ABB4
:104EE000012103F8010D1846FFF788FF03B05DF8B4
:104EF00004FBFFFF38B50E4C0E4D012323702B68C9
:104F00007BB90D4B1B7813B90020207038BD0420ED
:104F1000FFF7DCFA0728F7D8FFF7C8FE286000285B
:104F2000F2D02B68588800232370C0F1400038BDB0
:104F30004ECEFF1F50CEFF1F4BCEFF1F2DE9F0417D
:104F4000114B1B78F3B1114F114B3C68114D0126E9
:104F50001E7098464CB1002663882E70214623802F
:104F60000420FFF701FB3E6009E0FFF79FFE0146CA
:104F700020B104202C70FFF7F7FA00E02E70002318
:104F800088F80030BDE8F0814BCEFF1F50CEFF1FE8
:104F90004ECEFF1F4DCEFF1F38B50E4B1B7803F0D2
:104FA000FF05ABB90C4C216831B14B880B80042054
:104FB000FFF7DAFA256038BDFFF778FE014620B129
:104FC0000420BDE83840FFF7CFBA044B01221A7025
:104FD00038BD00BF4ECEFF1F50CEFF1F4DCEFF1F6E
:104FE00038B51E4C2378002B36D101232370FFF7F0
:104FF000DFFE08B1FFF759FEFFF738F908B1FEF7F9
:105000006DFB00F023F908B100F0C2F800F0ACF934
:1050100008B100F0BEF800232370EFF30583DBB97D
:10502000EFF3108272B60E4D286810B10D4C217846
:1050300011B18AB962B638BD0123237043692B6070
:105040000BB1996101E008490B6002B962B6002515
:10505000457783689847257038BD00BF5DCEFF1F38
:1050600070CEFF1F74CEFF1F6CCEFF1FEFF31080BA
:1050700072B6B0FA80F04009704700B162B670476E
:10508000F8B50C4E0C4F0025FFF7F0FF34680246D0
:105090006CB1636933600BB19D6100E03B60104609
:1050A000FFF7EBFF6577A36820469847ECE7FFF72B
:1050B000E4FFF8BD60CEFF1F64CEFF1FFFF7E0BF27
:1050C00015490B6830B513B98360C36009E0046803
:1050D0001A68944207D20025121B8360C560D8600D
:1050E0001A60086015E002681C689968121B02606B
:1050F00061B10C68A2420B46F5D28160C968C160FB
:10510000D860C168A21A88601A6002E08160C3603A
:1051100098600223037530BD68CEFF1F70B5164D31
:105120002C680026BCB1236813B1013B236012E058
:10513000A26802B1D36020692A60036826751B68E3
:1051400022460021984763681BB123602046FFF781
:10515000B7FF2C68E6E7FFF789FF084B00221C68C1
:105160001A60FFF78AFF2CB1A5682046FFF7A8FF59
:105170002C46F8E770BD00BF68CEFF1F78CEFF1F3A
:10518000024A136801331360FFF7C8BFD4CCFF1F76
:105190007047704710B5204B2048214960221A7093
:1051A000E1225A701F4B204A1C78204B082C01D159
:1051B000012402E00A2C03D119240460132005E025
:1051C0000C2C0CBF15243D240460122008601460D0
:1051D0001860174B17491B78174A03B101230B605E
:1051E0001360164B164A1978164B012901D88021F5
:1051F0000BE0042901D8842107E0082901D8852182
:1052000003E0102994BF86218721116019600E4B9D
:1052100001221A7010BD00BF0040074008B00340D3
:105220000CB003408888FF1F08B00B400CB00B4047
:105230007DCEFF1F20B0034020B00B408988FF1FA8
:1052400024B0034024B00B407CCEFF1F054B1878E0
:10525000054B1A78C0B2D3B2984238BF4030C01A5A
:10526000704700BFEECEFF1F85CEFF1FF0B534495B
:105270000B7913F0300F2FD072B68B7D03F0FF0443
:1052800023B9CB7940234B7462B625E062B62D4832
:105290002D4A037812782D4FDBB2D2B20546581C46
:1052A0004028CE7928BF00209042F6B21CBF3E5461
:1052B0000346601E10F0FF04F1D1D9B229702449D1
:1052C000096849B1934236BFC2F140029B1A9B184C
:1052D000272BC4BF01230B70194AD178C9B20D0620
:1052E0001ED513791C061BD51A4B1B481D78037855
:1052F0001A4EEDB2DBB2AB420AD00133282B28BFE5
:1053000000231479F45CE4B2D471147D072CF2D933
:10531000DBB203700A4B1A79100644BF7C22DA70A4
:1053200049060CD5064B1A79520608D50C4A0021BD
:1053300011700C4A126802B111703C22DA70F0BD93
:1053400000B00640EECEFF1F85CEFF1FAECEFF1F82
:1053500080CEFF1FF4CEFF1FEFCEFF1F86CEFF1FB4
:1053600084CEFF1FF0CEFF1F054B1878054B1A782F
:10537000C0B2D3B2984238BF4030C01A704700BFA5
:1053800066CFFF1FFDCEFF1F10B5284B1A7992067E
:1053900020D52749DA790B782648013300783F2B4E
:1053A000C8BF0023834218BF2348D2B21EBFC254D5
:1053B000DAB20A70214A116861B1214A1278D2B278
:1053C000934236BFC2F140029B1A9B18272BC4BFE1
:1053D00001230B701549CA78D2B2140616D50B7981
:1053E000180613D5174B164C18782378DBB2984261
:1053F00002D16C23CB7009E00133282B28BF002396
:105400001148C05CDBB2C0B2C871237051060CD524
:10541000064B1A79520608D50C4A002111700C4A25
:10542000126802B111702C22DA7010BD00C0064063
:1054300066CFFF1FFDCEFF1F26CFFF1FF8CEFF1F39
:1054400067CFFF1F6CCFFF1FFECEFF1FFCCEFF1FDD
:1054500068CFFF1F1FB572B6154B70221A70154A20
:10546000412111700F2102F8011C80221A701A7854
:105470001206FCD5104B186862B6104B984298BFC4
:105480000A2301AC98BF58430A222146FEF772FB5B
:105490000B4A0023E15C21B101330A2B22F8021BE5
:1054A000F8D1084A01335B00137004B010BD00BF8F
:1054B0000000024007000240080002407F9698006A
:1054C0001489FF1F1289FF1F0B460146184600F082
:1054D000DDBD00BF81F0004102E000BF83F000436A
:1054E00030B54FEA41044FEA430594EA050F08BF7F
:1054F00090EA020F1FBF54EA000C55EA020C7FEA43
:10550000645C7FEA655C00F0E2804FEA5454D4EBBF
:105510005555B8BF6D420CDD2C4480EA020281EA89
:10552000030382EA000083EA010180EA020281EAC1
:105530000303362D88BF30BD11F0004F4FEA013113
:105540004FF4801C4CEA113102D0404261EB410122
:1055500013F0004F4FEA03334CEA133302D05242A8
:1055600063EB430394EA050F00F0A780A4F1010464
:10557000D5F1200E0DDB02FA0EFC22FA05F280189E
:1055800041F1000103FA0EF2801843FA05F3594184
:105590000EE0A5F120050EF1200E012A03FA0EFC03
:1055A00028BF4CF0020C43FA05F3C01851EBE3712D
:1055B00001F0004507D54FF0000EDCF1000C7EEB4A
:1055C00000006EEB0101B1F5801F1BD3B1F5001F88
:1055D0000CD349085FEA30004FEA3C0C04F10104A7
:1055E0004FEA445212F5800F80F09A80BCF1004FD0
:1055F00008BF5FEA500C50F1000041EB045141EA52
:10560000050130BD5FEA4C0C404141EB010111F452
:10561000801FA4F10104E9D191F0000F04BF0146FD
:105620000020B1FA81F308BF2033A3F10B03B3F1DB
:1056300020020CDA0C3208DD02F1140CC2F10C026B
:1056400001FA0CF021FA02F10CE002F11402D8BFC9
:10565000C2F1200C01FA02F120FA0CFCDCBF41EA95
:105660000C019040E41AA2BF01EB0451294330BD64
:105670006FEA04041F3C1CDA0C340EDC04F1140441
:10568000C4F1200220FA04F001FA02F340EA030018
:1056900021FA04F345EA030130BDC4F10C04C4F15E
:1056A000200220FA02F001FA04F340EA030029463E
:1056B00030BD21FA04F0294630BD94F0000F83F488
:1056C000801306BF81F480110134013D4EE77FEA6B
:1056D000645C18BF7FEA655C29D094EA050F08BFB7
:1056E00090EA020F05D054EA000C04BF1946104698
:1056F00030BD91EA030F1EBF0021002030BD5FEADC
:10570000545C05D14000494128BF41F0004130BD03
:1057100014F580043CBF01F5801130BD01F0004557
:1057200045F0FE4141F470014FF0000030BD7FEACA
:10573000645C1ABF194610467FEA655C1CBF0B46C5
:10574000024650EA013406BF52EA033591EA030FDC
:1057500041F4002130BD00BF90F0000F04BF0021D4
:10576000704730B54FF4806404F132044FF0000507
:105770004FF0000150E700BF90F0000F04BF002180
:10578000704730B54FF4806404F1320410F00045E6
:1057900048BF40424FF000013EE700BF42004FEAE1
:1057A000E2014FEA31014FEA02701FBF12F07F435E
:1057B00093F07F4F81F06051704792F0000F14BF5B
:1057C00093F07F4F704730B54FF4607401F000459F
:1057D00021F0004120E700BF50EA010208BF7047F6
:1057E00030B54FF000050AE050EA010208BF7047EB
:1057F00030B511F0004502D5404261EB41014FF454
:10580000806404F132045FEA915C3FF4DCAE4FF057
:1058100003025FEADC0C18BF03325FEADC0C18BF3E
:10582000033202EBDC02C2F1200300FA03FC20FA8F
:1058300002F001FA03FE40EA0E0021FA02F11444DC
:10584000C1E600BF70B54FF0FF0C4CF4E06C1CEAF1
:1058500011541DBF1CEA135594EA0C0F95EA0C0F66
:1058600000F0DEF82C4481EA030621EA4C5123EAD9
:105870004C5350EA013518BF52EA033541F4801108
:1058800043F4801338D0A0FB02CE4FF00005E1FBBB
:1058900002E506F00042E0FB03E54FF00006E1FB05
:1058A00003569CF0000F18BF4EF0010EA4F1FF0448
:1058B000B6F5007F64F5407404D25FEA4E0E6D4188
:1058C00046EB060642EAC62141EA55514FEAC52099
:1058D00040EA5E504FEACE2EB4F1FD0C88BFBCF515
:1058E000E06F1ED8BEF1004F08BF5FEA500E50F1C6
:1058F000000041EB045170BD06F0004646EA01018C
:1059000040EA020081EA0301B4EB5C04C2BFD4EBBD
:105910000C0541EA045170BD41F480114FF0000EB6
:10592000013C00F3AB8014F1360FDEBF002001F024
:10593000004170BDC4F10004203C35DA0C341BDC9E
:1059400004F11404C4F1200500FA05F320FA04F070
:1059500001FA05F240EA020001F0004221F00041A4
:1059600010EBD37021FA04F642EB06015EEA430E17
:1059700008BF20EAD37070BDC4F10C04C4F1200547
:1059800000FA04F320FA05F001FA04F240EA0200FA
:1059900001F0004110EBD37041F100015EEA430ECB
:1059A00008BF20EAD37070BDC4F1200500FA05F2EB
:1059B0004EEA020E20FA04F301FA05F243EA02036A
:1059C00021FA04F001F0004121FA04F220EA020079
:1059D00000EBD3705EEA430E08BF20EAD37070BDBF
:1059E00094F0000F0FD101F00046400041EB01019F
:1059F00011F4801F08BF013CF7D041EA060195F081
:105A0000000F18BF704703F00046520043EB03033A
:105A100013F4801F08BF013DF7D043EA0603704727
:105A200094EA0C0F0CEA135518BF95EA0C0F0CD032
:105A300050EA410618BF52EA4306D1D181EA030178
:105A400001F000414FF0000070BD50EA410606BF72
:105A50001046194652EA430619D094EA0C0F02D1B7
:105A600050EA013613D195EA0C0F05D152EA0336FC
:105A70001CBF104619460AD181EA030101F000411A
:105A800041F0FE4141F470014FF0000070BD41F063
:105A9000FE4141F4780170BD70B54FF0FF0C4CF43D
:105AA000E06C1CEA11541DBF1CEA135594EA0C0F5C
:105AB00095EA0C0F00F0A7F8A4EB050481EA030EA9
:105AC00052EA03354FEA013100F088804FEA033390
:105AD0004FF0805545EA131343EA12634FEA02225E
